:100000000C945D000C9485000C9485000C94850084
:100010000C9485000C9485000C9485000C9485004C
:100020000C9485000C9485000C9485000C9485003C
:100030000C9485000C9485000C9485000C9485002C
:100040000C9433030C9485000C9401030C94DB0294
:100050000C9485000C9485000C9485000C9485000C
:100060000C9485000C9485000000000025002800F9
:100070002B0000000008000201000003040700003C
:1000800000000000000000000000240027002A00FB
:10009000010204081020408001020408102001021F
:1000A00004081020040404040404040402020202EC
:1000B00002020303030303037D0311241FBECFEFDA
:1000C000D8E0DEBFCDBF11E0A0E0B1E0E4ECFAE0A3
:1000D00002C005900D92A833B107D9F721E0A8E33B
:1000E000B1E001C01D92A83EB207E1F710E0CDE5F6
:1000F000D0E004C02197FE010E945A05CC35D107FB
:10010000C9F70E94B0030C9460050C940000AF92F4
:10011000BF92CF92DF92EF92FF920F931F93CF93F4
:10012000DF936C017B018B01040F151FEB015E0156
:10013000AE18BF08C017D10759F06991D601ED91EB
:10014000FC910190F081E02DC6010995892B79F78A
:10015000C501DF91CF911F910F91FF90EF90DF903C
:10016000CF90BF90AF900895FC01538D448D252F03
:1001700030E0842F90E0821B930B541710F0CF9641
:10018000089501970895FC01918D828D981761F073
:10019000A28DAE0FBF2FB11D5D968C91928D9F5F8A
:1001A0009F73928F90E008958FEF9FEF0895FC0169
:1001B000918D828D981731F0828DE80FF11D858D1C
:1001C00090E008958FEF9FEF0895FC01918D228DAF
:1001D000892F90E0805C9F4F821B91098F73992734
:1001E000089582E491E00E94E50021E0892B09F462
:1001F00020E0822F089580E090E0892B29F00E9472
:10020000F10081110C9400000895FC01A48DA80F49
:10021000B92FB11DA35ABF4F2C91848D90E0019648
:100220008F739927848FA689B7892C93A089B18968
:100230008C91837080648C93938D848D981306C009
:100240000288F389E02D80818F7D80830895EF926D
:10025000FF920F931F93CF93DF93EC0181E0888F80
:100260009B8D8C8D98131AC0E889F989808185FF50
:1002700015C09FB7F894EE89FF896083E889F989F2
:1002800080818370806480839FBF81E090E0DF91F4
:10029000CF911F910F91FF90EF900895F62E0B8D47
:1002A00010E00F5F1F4F0F731127E02E8C8D8E1102
:1002B0000CC00FB607FCFACFE889F989808185FF69
:1002C000F5CFCE010E940501F1CFEB8DEC0FFD2F94
:1002D000F11DE35AFF4FF0829FB7F8940B8FEA8924
:1002E000FB8980818062CFCFCF93DF93EC01888D33
:1002F0008823B9F0AA89BB89E889F9898C9185FDA1
:1003000003C0808186FD0DC00FB607FCF7CF8C912E
:1003100085FFF2CF808185FFEDCFCE010E940501E0
:10032000E9CFDF91CF91089590E0FC01EE58FF4FA7
:100330002491FC01E057FF4F3491FC01EC55FF4F35
:10034000E491EE23C9F0222339F0233001F1A8F41F
:10035000213019F1223029F1F0E0EE0FFF1FE859AA
:10036000FF4FA591B4918FB7F894EC91611126C01D
:1003700030953E233C938FBF08952730A9F0283055
:10038000C9F0243049F7809180008F7D03C08091AF
:1003900080008F7780938000DFCF84B58F7784BD16
:1003A000DBCF84B58F7DFBCF8091B0008F778093BA
:1003B000B000D2CF8091B0008F7DF9CF3E2BDACF45
:1003C000CF93DF9390E0FC01E057FF4F24918C55D1
:1003D0009F4FFC0184918823D1F090E0880F991FF2
:1003E000FC01EA57FF4FA591B491FC01E859FF4F7A
:1003F000C591D491623071F49FB7F8943C91822FEB
:10040000809583238C93E8812E2B28839FBFDF91D7
:10041000CF9108958FB7F894EC912E2B2C938FBF2A
:10042000F6CFCF93DF93EC016991662329F082E444
:1004300091E00E942701F8CFDF91CF91089561E00C
:10044000FC0187810C94940160E0FC0187810C948D
:1004500094018EBD00000DB407FEFDCF8EB508954A
:10046000862F0C942902CF938FED91E00E942402F5
:1004700085E00E9429028FEF0E942902C82F8FED8C
:1004800091E00E941F028C2F8170CF9108958FED13
:1004900091E00E9424028091E5010E9429028FEDE3
:1004A00091E00C941F02CF92DF92EF92FF92C090E6
:1004B000E301D090E401F12CE12C8FED91E00E945A
:1004C000240285E00E94290280E00E94290280FD2A
:1004D0000AC08FED91E00E941F0281E0FF90EF9033
:1004E000DF90CF9008952FB7F89480913E019091BE
:1004F0003F01A0914001B09141012FBFC114D1042F
:10050000E104F10429F08C159D05AE05BF05E0F26C
:100510008FED91E00E941F0280E0E0CFFC0101908E
:100520000020E9F73197AF01481B590BBC0182E469
:1005300091E00C948700CF92DF92EF92FF920F939D
:100540001F93CF93DF93CDB7DEB7A1970FB6F89483
:10055000DEBF0FBECDBF9C01990F440B550B19A2F6
:100560008E010F5D1F4F8AE0C82ED12CE12CF12C9B
:10057000CA01B901A70196010E943805605DF80122
:1005800062938F01211531054105510589F7309797
:1005900019F0CF010E948E02A1960FB6F894DEBF2B
:1005A0000FBECDBFDF91CF911F910F91FF90EF90C4
:1005B000DF90CF9008951F920F920FB60F921124E3
:1005C0002F933F934F935F936F937F938F939F935B
:1005D000AF93BF93EF93FF9382E491E00E940501F4
:1005E000FF91EF91BF91AF919F918F917F916F910B
:1005F0005F914F913F912F910F900FBE0F901F90E1
:1006000018951F920F920FB60F9211242F938F936C
:100610009F93EF93FF93E0915201F09153018081FA
:10062000E0915801F091590182FD1BC090818091A9
:100630005B018F5F8F7320915C01821741F0E09125
:100640005B01F0E0EE5BFE4F958F80935B01FF91C5
:10065000EF919F918F912F910F900FBE0F901F9050
:1006600018958081F4CF1F920F920FB60F9211242C
:100670002F933F938F939F93AF93BF9380913E01AE
:1006800090913F01A0914001B091410130913C0116
:1006900023E0230F2D3758F50196A11DB11D20939E
:1006A0003C0180933E0190933F01A0934001B093A1
:1006B00041018091380190913901A0913A01B091A6
:1006C0003B010196A11DB11D809338019093390122
:1006D000A0933A01B0933B01BF91AF919F918F914D
:1006E0003F912F910F900FBE0F901F90189526E805
:1006F000230F0296A11DB11DD2CFE2E4F1E01382D7
:10070000128288EE93E0A0E0B0E084839583A68314
:10071000B78386E091E09183808385EC90E09587B4
:10072000848784EC90E09787868780EC90E0918BBB
:10073000808B81EC90E0938B828B82EC90E0958BA8
:10074000848B86EC90E0978B868B118E128E138EA5
:10075000148E88E191E09093E0018093DF01089589
:10076000789484B5826084BD84B5816084BD85B58C
:10077000826085BD85B5816085BD80916E00816098
:1007800080936E001092810080918100826080933E
:100790008100809181008160809381008091800040
:1007A0008160809380008091B10084608093B1006B
:1007B0008091B00081608093B00080917A00846065
:1007C00080937A0080917A00826080937A00809191
:1007D0007A00816080937A0080917A0080688093AB
:1007E0007A001092C10061E084E00E94E00160E0C4
:1007F00084E00E949401E0915201F091530182E063
:100800008083E0914E01F0914F011082E091500100
:10081000F091510180E1808310925A01E0915601DC
:10082000F091570186E08083E0915401F0915501E9
:10083000808180618083E0915401F0915501808135
:1008400088608083E0915401F09155018081806837
:100850008083E0915401F091550180818F7D8083E8
:100860008EE191E00E9411028AE08093E60162E04D
:100870008CE00E94E001CFB7F89480913D01811196
:1008800027C0EEEAF0E08491EAE9F0E09491E82FE5
:10089000F0E0EE0FFF1FEA57FF4FA591B491EC91E6
:1008A000E92321F461E08AE00E94940161E08AE09A
:1008B0000E94E0018CB580618CBD8CB580648CBDDC
:1008C00061E08DE00E94E00161E08BE00E94E001C8
:1008D00080913D018F5F80933D01CFBF8CB58F7DAF
:1008E0008CBD8CB58C7F8CBD8DB581608DBD8CB57C
:1008F000837F8CBD8FED91E00E941F0288EC90E019
:100900009093E4018093E30184E08093E5018FED0F
:1009100091E00E9424028BEA0E9429028FED91E06F
:100920000E941F028FE090E00197F1F7C6E0C093AC
:10093000E5018FE291E00E941102C093E5010E945F
:1009400053028823E9F08FED91E00E94240283E0B6
:100950000E94290280E00E94290280E00E94290270
:1009600080E00E94290280E00E9429028093010118
:100970008FED91E00E941F020E9433028111FCCF93
:100980008091010190E00E949B0285E391E00E942A
:1009900011028091000190E00E949B028CE291E0A4
:1009A0000E941102809101018F5F8093010190915B
:1009B00000019F5F9093000190E00E949B0285E3FD
:1009C00091E00E9411028091000190E00E949B0240
:1009D0008CE291E00E9411020E9447028FED91E0AB
:1009E0000E94240280E20E94290280E00E942902E3
:1009F00080E00E94290280E00E9429028FED91E0B0
:100A00000E941F020E9433028111FCCF0E945302F8
:100A100081110BC0C0E0D0E02097F1F30E94F100FB
:100A20008823D1F30E940000F7CF0E9447028FED88
:100A300091E00E94240282E00E94290280E00E944C
:100A4000290280E00E94290280E00E942902809110
:100A500001010E942902809102010E9429028FED6A
:100A600091E00E941F020E9433028111FCCFD2CF7D
:100A7000A1E21A2EAA1BBB1BFD010DC0AA1FBB1FA2
:100A8000EE1FFF1FA217B307E407F50720F0A21B14
:100A9000B30BE40BF50B661F771F881F991F1A9481
:100AA00069F760957095809590959B01AC01BD01AB
:100AB000CF010895EE0FFF1F0590F491E02D0994EA
:040AC000F894FFCFD8
:100AC40001010000000027018700B4007401E50063
:100AD400C300D70000000000240230021F02756129
:100AE400727420636865636B206F6B210D0A00616B
:080AF40009620D0A000900006F
:00000001FF
